{
  "address": "0x2fb6B067f43f0C5b7793feE4E3a4F92eC7800f29",
  "abi": [
    {
      "inputs": [
        {
          "internalType": "address",
          "name": "_titan",
          "type": "address"
        },
        {
          "internalType": "address",
          "name": "_lottery",
          "type": "address"
        }
      ],
      "stateMutability": "nonpayable",
      "type": "constructor"
    },
    {
      "anonymous": false,
      "inputs": [
        {
          "indexed": true,
          "internalType": "address",
          "name": "previousOwner",
          "type": "address"
        },
        {
          "indexed": true,
          "internalType": "address",
          "name": "newOwner",
          "type": "address"
        }
      ],
      "name": "OwnershipTransferred",
      "type": "event"
    },
    {
      "inputs": [],
      "name": "balance",
      "outputs": [
        {
          "internalType": "uint256",
          "name": "",
          "type": "uint256"
        }
      ],
      "stateMutability": "view",
      "type": "function"
    },
    {
      "inputs": [
        {
          "internalType": "uint256",
          "name": "amount",
          "type": "uint256"
        }
      ],
      "name": "burn",
      "outputs": [],
      "stateMutability": "nonpayable",
      "type": "function"
    },
    {
      "inputs": [
        {
          "internalType": "uint256",
          "name": "amount",
          "type": "uint256"
        }
      ],
      "name": "fund",
      "outputs": [],
      "stateMutability": "nonpayable",
      "type": "function"
    },
    {
      "inputs": [],
      "name": "lottery_",
      "outputs": [
        {
          "internalType": "address",
          "name": "",
          "type": "address"
        }
      ],
      "stateMutability": "view",
      "type": "function"
    },
    {
      "inputs": [],
      "name": "owner",
      "outputs": [
        {
          "internalType": "address",
          "name": "",
          "type": "address"
        }
      ],
      "stateMutability": "view",
      "type": "function"
    },
    {
      "inputs": [],
      "name": "renounceOwnership",
      "outputs": [],
      "stateMutability": "nonpayable",
      "type": "function"
    },
    {
      "inputs": [
        {
          "internalType": "address",
          "name": "_lottery",
          "type": "address"
        }
      ],
      "name": "setLottery",
      "outputs": [],
      "stateMutability": "nonpayable",
      "type": "function"
    },
    {
      "inputs": [],
      "name": "titan_",
      "outputs": [
        {
          "internalType": "contract IERC20Burnable",
          "name": "",
          "type": "address"
        }
      ],
      "stateMutability": "view",
      "type": "function"
    },
    {
      "inputs": [
        {
          "internalType": "address",
          "name": "newOwner",
          "type": "address"
        }
      ],
      "name": "transferOwnership",
      "outputs": [],
      "stateMutability": "nonpayable",
      "type": "function"
    }
  ],
  "transactionHash": "0x677a3a1afabf464d45d33629541fa732bbe182c46676e59ea257ce88fe9620ff",
  "args": [
    "0xaAa5B9e6c589642f98a1cDA99B9D024B8407285A",
    "0xc22D2c4F9Cc14B952DAed5FD7Bc275032505bB75"
  ],
  "solcInputHash": "f5699562eb7d4d6e3a4d234075ee3fed",
  "bytecode": "0x608060405234801561001057600080fd5b506040516109ea3803806109ea83398101604081905261002f9161015c565b610038336100f0565b6001600160a01b03821661007e5760405162461bcd60e51b8152602060048201526008602482015267216164647265737360c01b60448201526064015b60405180910390fd5b6001600160a01b0381166100bf5760405162461bcd60e51b8152602060048201526008602482015267216164647265737360c01b6044820152606401610075565b600180546001600160a01b039384166001600160a01b0319918216179091556002805492909316911617905561018e565b600080546001600160a01b038381166001600160a01b0319831681178455604051919092169283917f8be0079c531659141344cd1fd0a4f28419497f9722a3daafe3b4186f6b6457e09190a35050565b80516001600160a01b038116811461015757600080fd5b919050565b6000806040838503121561016e578182fd5b61017783610140565b915061018560208401610140565b90509250929050565b61084d8061019d6000396000f3fe608060405234801561001057600080fd5b50600436106100935760003560e01c8063ca1d209d11610066578063ca1d209d146100f5578063d2d5322214610108578063f298083b1461011b578063f2fde38b1461012e578063f3c0a5281461014157600080fd5b806342966c6814610098578063715018a6146100ad5780638da5cb5b146100b5578063b69ef8a8146100df575b600080fd5b6100ab6100a6366004610733565b610154565b005b6100ab6101e8565b6000546001600160a01b03165b6040516001600160a01b0390911681526020015b60405180910390f35b6100e761021e565b6040519081526020016100d6565b6100ab610103366004610733565b61029f565b6001546100c2906001600160a01b031681565b6100ab6101293660046106ec565b610319565b6100ab61013c3660046106ec565b610365565b6002546100c2906001600160a01b031681565b6000546001600160a01b031633146101875760405162461bcd60e51b815260040161017e906107b2565b60405180910390fd5b600154604051630852cd8d60e31b8152600481018390526001600160a01b03909116906342966c6890602401600060405180830381600087803b1580156101cd57600080fd5b505af11580156101e1573d6000803e3d6000fd5b5050505050565b6000546001600160a01b031633146102125760405162461bcd60e51b815260040161017e906107b2565b61021c60006103f9565b565b6001546040516370a0823160e01b81523060048201526000916001600160a01b0316906370a082319060240160206040518083038186803b15801561026257600080fd5b505afa158015610276573d6000803e3d6000fd5b505050506040513d601f19601f8201168201806040525081019061029a919061074b565b905090565b6002546001600160a01b031633146102f95760405162461bcd60e51b815260206004820152601960248201527f43616c6c6572206973206e6f7420746865206c6f747465727900000000000000604482015260640161017e565b600254600154610316916001600160a01b03918216911683610449565b50565b6000546001600160a01b031633146103435760405162461bcd60e51b815260040161017e906107b2565b600280546001600160a01b0319166001600160a01b0392909216919091179055565b6000546001600160a01b0316331461038f5760405162461bcd60e51b815260040161017e906107b2565b6001600160a01b0381166103f45760405162461bcd60e51b815260206004820152602660248201527f4f776e61626c653a206e6577206f776e657220697320746865207a65726f206160448201526564647265737360d01b606482015260840161017e565b610316815b600080546001600160a01b038381166001600160a01b0319831681178455604051919092169283917f8be0079c531659141344cd1fd0a4f28419497f9722a3daafe3b4186f6b6457e09190a35050565b604080516001600160a01b038416602482015260448082018490528251808303909101815260649091019091526020810180516001600160e01b031663a9059cbb60e01b17905261049b9084906104a0565b505050565b60006104f5826040518060400160405280602081526020017f5361666545524332303a206c6f772d6c6576656c2063616c6c206661696c6564815250856001600160a01b03166105729092919063ffffffff16565b80519091501561049b57808060200190518101906105139190610713565b61049b5760405162461bcd60e51b815260206004820152602a60248201527f5361666545524332303a204552433230206f7065726174696f6e20646964206e6044820152691bdd081cdd58d8d9595960b21b606482015260840161017e565b6060610581848460008561058b565b90505b9392505050565b6060824710156105ec5760405162461bcd60e51b815260206004820152602660248201527f416464726573733a20696e73756666696369656e742062616c616e636520666f6044820152651c8818d85b1b60d21b606482015260840161017e565b843b61063a5760405162461bcd60e51b815260206004820152601d60248201527f416464726573733a2063616c6c20746f206e6f6e2d636f6e7472616374000000604482015260640161017e565b600080866001600160a01b031685876040516106569190610763565b60006040518083038185875af1925050503d8060008114610693576040519150601f19603f3d011682016040523d82523d6000602084013e610698565b606091505b50915091506106a88282866106b3565b979650505050505050565b606083156106c2575081610584565b8251156106d25782518084602001fd5b8160405162461bcd60e51b815260040161017e919061077f565b6000602082840312156106fd578081fd5b81356001600160a01b0381168114610584578182fd5b600060208284031215610724578081fd5b81518015158114610584578182fd5b600060208284031215610744578081fd5b5035919050565b60006020828403121561075c578081fd5b5051919050565b600082516107758184602087016107e7565b9190910192915050565b602081526000825180602084015261079e8160408501602087016107e7565b601f01601f19169190910160400192915050565b6020808252818101527f4f776e61626c653a2063616c6c6572206973206e6f7420746865206f776e6572604082015260600190565b60005b838110156108025781810151838201526020016107ea565b83811115610811576000848401525b5050505056fea264697066735822122030a66890e1c0325533b18f0689231d281ef510211eeb0c897b7b4f99b7f9a27864736f6c63430008040033",
  "devdoc": {
    "kind": "dev",
    "methods": {
      "owner()": {
        "details": "Returns the address of the current owner."
      },
      "renounceOwnership()": {
        "details": "Leaves the contract without owner. It will not be possible to call `onlyOwner` functions anymore. Can only be called by the current owner. NOTE: Renouncing ownership will leave the contract without an owner, thereby removing any functionality that is only available to the owner."
      },
      "transferOwnership(address)": {
        "details": "Transfers ownership of the contract to a new account (`newOwner`). Can only be called by the current owner."
      }
    },
    "version": 1
  },
  "userdoc": {
    "kind": "user",
    "methods": {},
    "version": 1
  },
  "storageLayout": {
    "storage": [
      {
        "astId": 319,
        "contract": "contracts/PrizeReservePool.sol:PrizeReservePool",
        "label": "_owner",
        "offset": 0,
        "slot": "0",
        "type": "t_address"
      },
      {
        "astId": 4442,
        "contract": "contracts/PrizeReservePool.sol:PrizeReservePool",
        "label": "titan_",
        "offset": 0,
        "slot": "1",
        "type": "t_contract(IERC20Burnable)5890"
      },
      {
        "astId": 4444,
        "contract": "contracts/PrizeReservePool.sol:PrizeReservePool",
        "label": "lottery_",
        "offset": 0,
        "slot": "2",
        "type": "t_address"
      }
    ],
    "types": {
      "t_address": {
        "encoding": "inplace",
        "label": "address",
        "numberOfBytes": "20"
      },
      "t_contract(IERC20Burnable)5890": {
        "encoding": "inplace",
        "label": "contract IERC20Burnable",
        "numberOfBytes": "20"
      }
    }
  }
}