{
  "address": "0x8cE36C485F02E7B8F97586DAf34a1731125e8049",
  "abi": [
    {
      "inputs": [
        {
          "internalType": "address",
          "name": "_vrfCoordinator",
          "type": "address"
        },
        {
          "internalType": "address",
          "name": "_linkToken",
          "type": "address"
        },
        {
          "internalType": "address",
          "name": "_lottery",
          "type": "address"
        },
        {
          "internalType": "bytes32",
          "name": "_keyHash",
          "type": "bytes32"
        },
        {
          "internalType": "uint256",
          "name": "_fee",
          "type": "uint256"
        }
      ],
      "stateMutability": "nonpayable",
      "type": "constructor"
    },
    {
      "anonymous": false,
      "inputs": [
        {
          "indexed": true,
          "internalType": "address",
          "name": "previousOwner",
          "type": "address"
        },
        {
          "indexed": true,
          "internalType": "address",
          "name": "newOwner",
          "type": "address"
        }
      ],
      "name": "OwnershipTransferred",
      "type": "event"
    },
    {
      "inputs": [],
      "name": "currentLotteryId",
      "outputs": [
        {
          "internalType": "uint256",
          "name": "",
          "type": "uint256"
        }
      ],
      "stateMutability": "view",
      "type": "function"
    },
    {
      "inputs": [
        {
          "internalType": "uint256",
          "name": "lotteryId",
          "type": "uint256"
        }
      ],
      "name": "getRandomNumber",
      "outputs": [
        {
          "internalType": "bytes32",
          "name": "requestId",
          "type": "bytes32"
        }
      ],
      "stateMutability": "nonpayable",
      "type": "function"
    },
    {
      "inputs": [],
      "name": "lottery",
      "outputs": [
        {
          "internalType": "address",
          "name": "",
          "type": "address"
        }
      ],
      "stateMutability": "view",
      "type": "function"
    },
    {
      "inputs": [],
      "name": "owner",
      "outputs": [
        {
          "internalType": "address",
          "name": "",
          "type": "address"
        }
      ],
      "stateMutability": "view",
      "type": "function"
    },
    {
      "inputs": [],
      "name": "randomResult",
      "outputs": [
        {
          "internalType": "uint256",
          "name": "",
          "type": "uint256"
        }
      ],
      "stateMutability": "view",
      "type": "function"
    },
    {
      "inputs": [
        {
          "internalType": "bytes32",
          "name": "requestId",
          "type": "bytes32"
        },
        {
          "internalType": "uint256",
          "name": "randomness",
          "type": "uint256"
        }
      ],
      "name": "rawFulfillRandomness",
      "outputs": [],
      "stateMutability": "nonpayable",
      "type": "function"
    },
    {
      "inputs": [],
      "name": "renounceOwnership",
      "outputs": [],
      "stateMutability": "nonpayable",
      "type": "function"
    },
    {
      "inputs": [
        {
          "internalType": "uint256",
          "name": "_fee",
          "type": "uint256"
        }
      ],
      "name": "setFee",
      "outputs": [],
      "stateMutability": "nonpayable",
      "type": "function"
    },
    {
      "inputs": [
        {
          "internalType": "address",
          "name": "_lottery",
          "type": "address"
        }
      ],
      "name": "setLottery",
      "outputs": [],
      "stateMutability": "nonpayable",
      "type": "function"
    },
    {
      "inputs": [
        {
          "internalType": "address",
          "name": "newOwner",
          "type": "address"
        }
      ],
      "name": "transferOwnership",
      "outputs": [],
      "stateMutability": "nonpayable",
      "type": "function"
    },
    {
      "inputs": [],
      "name": "withdrawAllLink",
      "outputs": [],
      "stateMutability": "nonpayable",
      "type": "function"
    }
  ],
  "transactionHash": "0x5bcec6d755f7fe997688adacd1c9f02db3a36d9e35534b84cde399c10793c1a7",
  "args": [
    "0x3d2341ADb2D31f1c5530cDC622016af293177AE0",
    "0xb0897686c545045aFc77CF20eC7A532E3120E0F1",
    "0xc22D2c4F9Cc14B952DAed5FD7Bc275032505bB75",
    "0xf86195cf7690c55907b2b611ebb7343a6f649bff128701cc542f0569e2c549da",
    "100000000000000"
  ],
  "solcInputHash": "f5699562eb7d4d6e3a4d234075ee3fed",
  "bytecode": "0x60c060405234801561001057600080fd5b50604051610be4380380610be483398101604081905261002f916100f7565b6001600160601b0319606086811b821660a05285901b166080526100586100533390565b610089565b600291909155600355600780546001600160a01b0319166001600160a01b03929092169190911790555061014c9050565b600180546001600160a01b038381166001600160a01b0319831681179093556040519116919082907f8be0079c531659141344cd1fd0a4f28419497f9722a3daafe3b4186f6b6457e090600090a35050565b80516001600160a01b03811681146100f257600080fd5b919050565b600080600080600060a0868803121561010e578081fd5b610117866100db565b9450610125602087016100db565b9350610133604087016100db565b6060870151608090970151959894975095949392505050565b60805160601c60a05160601c610a5861018c600039600081816101f5015261076a01526000818161033401528181610484015261073b0152610a586000f3fe608060405234801561001057600080fd5b50600436106100a95760003560e01c806394985ddd1161007157806394985ddd14610115578063b37217a414610128578063ba13a5721461013b578063ccf03f3a1461014e578063f298083b14610156578063f2fde38b1461016957600080fd5b806342619f66146100ae57806369fe0e2d146100ca5780636be4097c146100df578063715018a6146100e85780638da5cb5b146100f0575b600080fd5b6100b760055481565b6040519081526020015b60405180910390f35b6100dd6100d836600461092f565b61017c565b005b6100b760065481565b6100dd6101b4565b6001546001600160a01b03165b6040516001600160a01b0390911681526020016100c1565b6100dd61012336600461090e565b6101ea565b6100b761013636600461092f565b610270565b6007546100fd906001600160a01b031681565b6100dd610445565b6100dd6101643660046108c0565b610591565b6100dd6101773660046108c0565b6105dd565b6001546001600160a01b031633146101af5760405162461bcd60e51b81526004016101a6906109c9565b60405180910390fd5b600355565b6001546001600160a01b031633146101de5760405162461bcd60e51b81526004016101a6906109c9565b6101e86000610671565b565b336001600160a01b037f000000000000000000000000000000000000000000000000000000000000000016146102625760405162461bcd60e51b815260206004820152601f60248201527f4f6e6c7920565246436f6f7264696e61746f722063616e2066756c66696c6c0060448201526064016101a6565b61026c82826106c3565b5050565b6007546000906001600160a01b031633146102cd5760405162461bcd60e51b815260206004820152601e60248201527f4f6e6c79204c6f74746572792063616e2063616c6c2066756e6374696f6e000060448201526064016101a6565b60025461031c5760405162461bcd60e51b815260206004820152601860248201527f4d75737420686176652076616c6964206b65792068617368000000000000000060448201526064016101a6565b6003546040516370a0823160e01b81523060048201527f00000000000000000000000000000000000000000000000000000000000000006001600160a01b0316906370a082319060240160206040518083038186803b15801561037e57600080fd5b505afa158015610392573d6000803e3d6000fd5b505050506040513d601f19601f820116820180604052508101906103b69190610947565b10156104185760405162461bcd60e51b815260206004820152602b60248201527f4e6f7420656e6f756768204c494e4b202d2066696c6c20636f6e74726163742060448201526a1dda5d1a0819985d58d95d60aa1b60648201526084016101a6565b600480546001600160a01b03191633179055600682905560025460035461043f9190610737565b92915050565b6001546001600160a01b0316331461046f5760405162461bcd60e51b81526004016101a6906109c9565b6040516370a0823160e01b81523060048201527f00000000000000000000000000000000000000000000000000000000000000006001600160a01b03169063a9059cbb90339083906370a082319060240160206040518083038186803b1580156104d857600080fd5b505afa1580156104ec573d6000803e3d6000fd5b505050506040513d601f19601f820116820180604052508101906105109190610947565b6040516001600160e01b031960e085901b1681526001600160a01b0390921660048301526024820152604401602060405180830381600087803b15801561055657600080fd5b505af115801561056a573d6000803e3d6000fd5b505050506040513d601f19601f8201168201806040525081019061058e91906108ee565b50565b6001546001600160a01b031633146105bb5760405162461bcd60e51b81526004016101a6906109c9565b600780546001600160a01b0319166001600160a01b0392909216919091179055565b6001546001600160a01b031633146106075760405162461bcd60e51b81526004016101a6906109c9565b6001600160a01b03811661066c5760405162461bcd60e51b815260206004820152602660248201527f4f776e61626c653a206e6577206f776e657220697320746865207a65726f206160448201526564647265737360d01b60648201526084016101a6565b61058e815b600180546001600160a01b038381166001600160a01b0319831681179093556040519116919082907f8be0079c531659141344cd1fd0a4f28419497f9722a3daafe3b4186f6b6457e090600090a35050565b600480546006546040516374bfe0b160e11b81529283015260248201849052604482018390526001600160a01b03169063e97fc16290606401600060405180830381600087803b15801561071657600080fd5b505af115801561072a573d6000803e3d6000fd5b5050506005919091555050565b60007f00000000000000000000000000000000000000000000000000000000000000006001600160a01b0316634000aea07f0000000000000000000000000000000000000000000000000000000000000000848660006040516020016107a7929190918252602082015260400190565b6040516020818303038152906040526040518463ffffffff1660e01b81526004016107d49392919061095f565b602060405180830381600087803b1580156107ee57600080fd5b505af1158015610802573d6000803e3d6000fd5b505050506040513d601f19601f8201168201806040525081019061082691906108ee565b5060008381526020818152604080832054815180840188905280830185905230606082015260808082018390528351808303909101815260a0909101909252815191830191909120868452929091526108809060016109fe565b6000858152602081815260409182902092909255805180830187905280820184905281518082038301815260609091019091528051910120949350505050565b6000602082840312156108d1578081fd5b81356001600160a01b03811681146108e7578182fd5b9392505050565b6000602082840312156108ff578081fd5b815180151581146108e7578182fd5b60008060408385031215610920578081fd5b50508035926020909101359150565b600060208284031215610940578081fd5b5035919050565b600060208284031215610958578081fd5b5051919050565b60018060a01b0384168152600060208481840152606060408401528351806060850152825b818110156109a057858101830151858201608001528201610984565b818111156109b15783608083870101525b50601f01601f19169290920160800195945050505050565b6020808252818101527f4f776e61626c653a2063616c6c6572206973206e6f7420746865206f776e6572604082015260600190565b60008219821115610a1d57634e487b7160e01b81526011600452602481fd5b50019056fea264697066735822122083c9b812a740b3f1d13612fbfaf1dfc1bbc989ccacfd01f7a95c1cbb7c4ca92e64736f6c63430008040033",
  "devdoc": {
    "kind": "dev",
    "methods": {
      "owner()": {
        "details": "Returns the address of the current owner."
      },
      "renounceOwnership()": {
        "details": "Leaves the contract without owner. It will not be possible to call `onlyOwner` functions anymore. Can only be called by the current owner. NOTE: Renouncing ownership will leave the contract without an owner, thereby removing any functionality that is only available to the owner."
      },
      "transferOwnership(address)": {
        "details": "Transfers ownership of the contract to a new account (`newOwner`). Can only be called by the current owner."
      }
    },
    "version": 1
  },
  "userdoc": {
    "kind": "user",
    "methods": {
      "getRandomNumber(uint256)": {
        "notice": "Requests randomness from a user-provided seed"
      }
    },
    "version": 1
  },
  "storageLayout": {
    "storage": [
      {
        "astId": 79,
        "contract": "contracts/RandomNumberGenerator.sol:RandomNumberGenerator",
        "label": "nonces",
        "offset": 0,
        "slot": "0",
        "type": "t_mapping(t_bytes32,t_uint256)"
      },
      {
        "astId": 319,
        "contract": "contracts/RandomNumberGenerator.sol:RandomNumberGenerator",
        "label": "_owner",
        "offset": 0,
        "slot": "1",
        "type": "t_address"
      },
      {
        "astId": 4564,
        "contract": "contracts/RandomNumberGenerator.sol:RandomNumberGenerator",
        "label": "keyHash",
        "offset": 0,
        "slot": "2",
        "type": "t_bytes32"
      },
      {
        "astId": 4566,
        "contract": "contracts/RandomNumberGenerator.sol:RandomNumberGenerator",
        "label": "fee",
        "offset": 0,
        "slot": "3",
        "type": "t_uint256"
      },
      {
        "astId": 4568,
        "contract": "contracts/RandomNumberGenerator.sol:RandomNumberGenerator",
        "label": "requester",
        "offset": 0,
        "slot": "4",
        "type": "t_address"
      },
      {
        "astId": 4570,
        "contract": "contracts/RandomNumberGenerator.sol:RandomNumberGenerator",
        "label": "randomResult",
        "offset": 0,
        "slot": "5",
        "type": "t_uint256"
      },
      {
        "astId": 4572,
        "contract": "contracts/RandomNumberGenerator.sol:RandomNumberGenerator",
        "label": "currentLotteryId",
        "offset": 0,
        "slot": "6",
        "type": "t_uint256"
      },
      {
        "astId": 4574,
        "contract": "contracts/RandomNumberGenerator.sol:RandomNumberGenerator",
        "label": "lottery",
        "offset": 0,
        "slot": "7",
        "type": "t_address"
      }
    ],
    "types": {
      "t_address": {
        "encoding": "inplace",
        "label": "address",
        "numberOfBytes": "20"
      },
      "t_bytes32": {
        "encoding": "inplace",
        "label": "bytes32",
        "numberOfBytes": "32"
      },
      "t_mapping(t_bytes32,t_uint256)": {
        "encoding": "mapping",
        "key": "t_bytes32",
        "label": "mapping(bytes32 => uint256)",
        "numberOfBytes": "32",
        "value": "t_uint256"
      },
      "t_uint256": {
        "encoding": "inplace",
        "label": "uint256",
        "numberOfBytes": "32"
      }
    }
  }
}