{
  "address": "0x71f6DB6817fddFED796eCA516ec17BB295279278",
  "abi": [
    {
      "anonymous": false,
      "inputs": [
        {
          "indexed": true,
          "internalType": "address",
          "name": "previousOwner",
          "type": "address"
        },
        {
          "indexed": true,
          "internalType": "address",
          "name": "newOwner",
          "type": "address"
        }
      ],
      "name": "OwnershipTransferred",
      "type": "event"
    },
    {
      "inputs": [],
      "name": "burnTitanPoolRatio_",
      "outputs": [
        {
          "internalType": "uint256",
          "name": "",
          "type": "uint256"
        }
      ],
      "stateMutability": "view",
      "type": "function"
    },
    {
      "inputs": [
        {
          "internalType": "uint256",
          "name": "amount",
          "type": "uint256"
        }
      ],
      "name": "collect",
      "outputs": [],
      "stateMutability": "nonpayable",
      "type": "function"
    },
    {
      "inputs": [
        {
          "internalType": "address",
          "name": "_titan",
          "type": "address"
        },
        {
          "internalType": "address",
          "name": "_lottery",
          "type": "address"
        },
        {
          "internalType": "address",
          "name": "_prizeReservePool",
          "type": "address"
        }
      ],
      "name": "initialize",
      "outputs": [],
      "stateMutability": "nonpayable",
      "type": "function"
    },
    {
      "inputs": [],
      "name": "lottery_",
      "outputs": [
        {
          "internalType": "address",
          "name": "",
          "type": "address"
        }
      ],
      "stateMutability": "view",
      "type": "function"
    },
    {
      "inputs": [],
      "name": "owner",
      "outputs": [
        {
          "internalType": "address",
          "name": "",
          "type": "address"
        }
      ],
      "stateMutability": "view",
      "type": "function"
    },
    {
      "inputs": [],
      "name": "prizeReservePool_",
      "outputs": [
        {
          "internalType": "address",
          "name": "",
          "type": "address"
        }
      ],
      "stateMutability": "view",
      "type": "function"
    },
    {
      "inputs": [],
      "name": "renounceOwnership",
      "outputs": [],
      "stateMutability": "nonpayable",
      "type": "function"
    },
    {
      "inputs": [],
      "name": "reservePoolRatio_",
      "outputs": [
        {
          "internalType": "uint256",
          "name": "",
          "type": "uint256"
        }
      ],
      "stateMutability": "view",
      "type": "function"
    },
    {
      "inputs": [
        {
          "internalType": "uint256",
          "name": "_reservePoolRatio",
          "type": "uint256"
        },
        {
          "internalType": "uint256",
          "name": "_burnTitanPoolRatio",
          "type": "uint256"
        }
      ],
      "name": "setDistribution",
      "outputs": [],
      "stateMutability": "nonpayable",
      "type": "function"
    },
    {
      "inputs": [
        {
          "internalType": "address",
          "name": "_lottery",
          "type": "address"
        }
      ],
      "name": "setLottery",
      "outputs": [],
      "stateMutability": "nonpayable",
      "type": "function"
    },
    {
      "inputs": [
        {
          "internalType": "address",
          "name": "_prizeReservePool",
          "type": "address"
        }
      ],
      "name": "setPrizeReservePool",
      "outputs": [],
      "stateMutability": "nonpayable",
      "type": "function"
    },
    {
      "inputs": [],
      "name": "titan_",
      "outputs": [
        {
          "internalType": "address",
          "name": "",
          "type": "address"
        }
      ],
      "stateMutability": "view",
      "type": "function"
    },
    {
      "inputs": [
        {
          "internalType": "address",
          "name": "newOwner",
          "type": "address"
        }
      ],
      "name": "transferOwnership",
      "outputs": [],
      "stateMutability": "nonpayable",
      "type": "function"
    }
  ],
  "transactionHash": "0xf5b507c9766753c7c089a2a87b8179de3d5c3f2521a8b81391185f3bf877d019",
  "args": [],
  "solcInputHash": "f5699562eb7d4d6e3a4d234075ee3fed",
  "bytecode": "0x6080604052620493e0600455620aae6060055534801561001e57600080fd5b506100283361002d565b61007d565b600080546001600160a01b038381166001600160a01b0319831681178455604051919092169283917f8be0079c531659141344cd1fd0a4f28419497f9722a3daafe3b4186f6b6457e09190a35050565b610c3d8061008c6000396000f3fe608060405234801561001057600080fd5b50600436106100cf5760003560e01c8063c0c53b8b1161008c578063f18dba2611610066578063f18dba261461018b578063f298083b1461019e578063f2fde38b146101b1578063f3c0a528146101c457600080fd5b8063c0c53b8b14610152578063ce3f865f14610165578063d2d532221461017857600080fd5b80635717fb21146100d45780635b99a4d6146100f05780635e8a87a81461011b578063621bc66914610124578063715018a6146101395780638da5cb5b14610141575b600080fd5b6100dd60055481565b6040519081526020015b60405180910390f35b600354610103906001600160a01b031681565b6040516001600160a01b0390911681526020016100e7565b6100dd60045481565b610137610132366004610a1e565b6101d7565b005b610137610282565b6000546001600160a01b0316610103565b610137610160366004610a38565b6102b8565b610137610173366004610a9a565b610468565b600154610103906001600160a01b031681565b610137610199366004610ab2565b6105aa565b6101376101ac366004610a1e565b6105df565b6101376101bf366004610a1e565b61062b565b600254610103906001600160a01b031681565b6000546001600160a01b0316331461020a5760405162461bcd60e51b815260040161020190610b22565b60405180910390fd5b6001600160a01b0381166102605760405162461bcd60e51b815260206004820152601d60248201527f436f6e7472616374732063616e6e6f74206265203020616464726573730000006044820152606401610201565b600380546001600160a01b0319166001600160a01b0392909216919091179055565b6000546001600160a01b031633146102ac5760405162461bcd60e51b815260040161020190610b22565b6102b660006106c6565b565b600054600160a81b900460ff16806102da5750600054600160a01b900460ff16155b61033d5760405162461bcd60e51b815260206004820152602e60248201527f496e697469616c697a61626c653a20636f6e747261637420697320616c72656160448201526d191e481a5b9a5d1a585b1a5e995960921b6064820152608401610201565b600054600160a81b900460ff16158015610367576000805461ffff60a01b191661010160a01b1790555b6000546001600160a01b031633146103915760405162461bcd60e51b815260040161020190610b22565b6001600160a01b038416158015906103b157506001600160a01b03831615155b80156103c557506001600160a01b03821615155b6104115760405162461bcd60e51b815260206004820152601d60248201527f436f6e7472616374732063616e6e6f74206265203020616464726573730000006044820152606401610201565b600180546001600160a01b038087166001600160a01b0319928316179092556002805486841690831617905560038054928516929091169190911790558015610462576000805460ff60a81b191690555b50505050565b6002546001600160a01b031633146104c25760405162461bcd60e51b815260206004820152601960248201527f43616c6c6572206973206e6f7420746865206c6f7474657279000000000000006044820152606401610201565b60006004546005546104d49190610b57565b9050600081600554846104e79190610b8f565b6104f19190610b6f565b905060006104ff8285610bae565b6001546002549192506001600160a01b0390811691610522918391163088610716565b811561054257600354610542906001600160a01b03838116911684610781565b82156105a357604051630852cd8d60e31b8152600481018490526001600160a01b038216906342966c6890602401600060405180830381600087803b15801561058a57600080fd5b505af115801561059e573d6000803e3d6000fd5b505050505b5050505050565b6000546001600160a01b031633146105d45760405162461bcd60e51b815260040161020190610b22565b600491909155600555565b6000546001600160a01b031633146106095760405162461bcd60e51b815260040161020190610b22565b600280546001600160a01b0319166001600160a01b0392909216919091179055565b6000546001600160a01b031633146106555760405162461bcd60e51b815260040161020190610b22565b6001600160a01b0381166106ba5760405162461bcd60e51b815260206004820152602660248201527f4f776e61626c653a206e6577206f776e657220697320746865207a65726f206160448201526564647265737360d01b6064820152608401610201565b6106c3816106c6565b50565b600080546001600160a01b038381166001600160a01b0319831681178455604051919092169283917f8be0079c531659141344cd1fd0a4f28419497f9722a3daafe3b4186f6b6457e09190a35050565b6040516001600160a01b03808516602483015283166044820152606481018290526104629085906323b872dd60e01b906084015b60408051601f198184030181529190526020810180516001600160e01b03166001600160e01b0319909316929092179091526107b6565b6040516001600160a01b0383166024820152604481018290526107b190849063a9059cbb60e01b9060640161074a565b505050565b600061080b826040518060400160405280602081526020017f5361666545524332303a206c6f772d6c6576656c2063616c6c206661696c6564815250856001600160a01b03166108889092919063ffffffff16565b8051909150156107b157808060200190518101906108299190610a7a565b6107b15760405162461bcd60e51b815260206004820152602a60248201527f5361666545524332303a204552433230206f7065726174696f6e20646964206e6044820152691bdd081cdd58d8d9595960b21b6064820152608401610201565b606061089784846000856108a1565b90505b9392505050565b6060824710156109025760405162461bcd60e51b815260206004820152602660248201527f416464726573733a20696e73756666696369656e742062616c616e636520666f6044820152651c8818d85b1b60d21b6064820152608401610201565b843b6109505760405162461bcd60e51b815260206004820152601d60248201527f416464726573733a2063616c6c20746f206e6f6e2d636f6e74726163740000006044820152606401610201565b600080866001600160a01b0316858760405161096c9190610ad3565b60006040518083038185875af1925050503d80600081146109a9576040519150601f19603f3d011682016040523d82523d6000602084013e6109ae565b606091505b50915091506109be8282866109c9565b979650505050505050565b606083156109d857508161089a565b8251156109e85782518084602001fd5b8160405162461bcd60e51b81526004016102019190610aef565b80356001600160a01b0381168114610a1957600080fd5b919050565b600060208284031215610a2f578081fd5b61089a82610a02565b600080600060608486031215610a4c578182fd5b610a5584610a02565b9250610a6360208501610a02565b9150610a7160408501610a02565b90509250925092565b600060208284031215610a8b578081fd5b8151801515811461089a578182fd5b600060208284031215610aab578081fd5b5035919050565b60008060408385031215610ac4578182fd5b50508035926020909101359150565b60008251610ae5818460208701610bc5565b9190910192915050565b6020815260008251806020840152610b0e816040850160208701610bc5565b601f01601f19169190910160400192915050565b6020808252818101527f4f776e61626c653a2063616c6c6572206973206e6f7420746865206f776e6572604082015260600190565b60008219821115610b6a57610b6a610bf1565b500190565b600082610b8a57634e487b7160e01b81526012600452602481fd5b500490565b6000816000190483118215151615610ba957610ba9610bf1565b500290565b600082821015610bc057610bc0610bf1565b500390565b60005b83811015610be0578181015183820152602001610bc8565b838111156104625750506000910152565b634e487b7160e01b600052601160045260246000fdfea26469706673582212204df31fe6f5fee09dfa579afc4c848505646bd9b01e93e9a5a90e48be217fb81564736f6c63430008040033",
  "devdoc": {
    "kind": "dev",
    "methods": {
      "collect(uint256)": {
        "params": {
          "amount": "amount of IRON"
        }
      },
      "owner()": {
        "details": "Returns the address of the current owner."
      },
      "renounceOwnership()": {
        "details": "Leaves the contract without owner. It will not be possible to call `onlyOwner` functions anymore. Can only be called by the current owner. NOTE: Renouncing ownership will leave the contract without an owner, thereby removing any functionality that is only available to the owner."
      },
      "transferOwnership(address)": {
        "details": "Transfers ownership of the contract to a new account (`newOwner`). Can only be called by the current owner."
      }
    },
    "version": 1
  },
  "userdoc": {
    "kind": "user",
    "methods": {
      "collect(uint256)": {
        "notice": "collect iron"
      }
    },
    "version": 1
  },
  "storageLayout": {
    "storage": [
      {
        "astId": 319,
        "contract": "contracts/TaxService.sol:TaxService",
        "label": "_owner",
        "offset": 0,
        "slot": "0",
        "type": "t_address"
      },
      {
        "astId": 271,
        "contract": "contracts/TaxService.sol:TaxService",
        "label": "_initialized",
        "offset": 20,
        "slot": "0",
        "type": "t_bool"
      },
      {
        "astId": 274,
        "contract": "contracts/TaxService.sol:TaxService",
        "label": "_initializing",
        "offset": 21,
        "slot": "0",
        "type": "t_bool"
      },
      {
        "astId": 4751,
        "contract": "contracts/TaxService.sol:TaxService",
        "label": "titan_",
        "offset": 0,
        "slot": "1",
        "type": "t_address"
      },
      {
        "astId": 4753,
        "contract": "contracts/TaxService.sol:TaxService",
        "label": "lottery_",
        "offset": 0,
        "slot": "2",
        "type": "t_address"
      },
      {
        "astId": 4755,
        "contract": "contracts/TaxService.sol:TaxService",
        "label": "prizeReservePool_",
        "offset": 0,
        "slot": "3",
        "type": "t_address"
      },
      {
        "astId": 4758,
        "contract": "contracts/TaxService.sol:TaxService",
        "label": "reservePoolRatio_",
        "offset": 0,
        "slot": "4",
        "type": "t_uint256"
      },
      {
        "astId": 4761,
        "contract": "contracts/TaxService.sol:TaxService",
        "label": "burnTitanPoolRatio_",
        "offset": 0,
        "slot": "5",
        "type": "t_uint256"
      }
    ],
    "types": {
      "t_address": {
        "encoding": "inplace",
        "label": "address",
        "numberOfBytes": "20"
      },
      "t_bool": {
        "encoding": "inplace",
        "label": "bool",
        "numberOfBytes": "1"
      },
      "t_uint256": {
        "encoding": "inplace",
        "label": "uint256",
        "numberOfBytes": "32"
      }
    }
  }
}