{
  "address": "0xb5E120Fb6Fa70C87018Ad2a7580535F286341242",
  "abi": [
    {
      "inputs": [
        {
          "internalType": "string",
          "name": "_uri",
          "type": "string"
        },
        {
          "internalType": "address",
          "name": "_lotto",
          "type": "address"
        }
      ],
      "stateMutability": "nonpayable",
      "type": "constructor"
    },
    {
      "anonymous": false,
      "inputs": [
        {
          "indexed": true,
          "internalType": "address",
          "name": "account",
          "type": "address"
        },
        {
          "indexed": true,
          "internalType": "address",
          "name": "operator",
          "type": "address"
        },
        {
          "indexed": false,
          "internalType": "bool",
          "name": "approved",
          "type": "bool"
        }
      ],
      "name": "ApprovalForAll",
      "type": "event"
    },
    {
      "anonymous": false,
      "inputs": [
        {
          "indexed": true,
          "internalType": "address",
          "name": "receiving",
          "type": "address"
        },
        {
          "indexed": false,
          "internalType": "uint256",
          "name": "lotteryId",
          "type": "uint256"
        },
        {
          "indexed": false,
          "internalType": "uint256",
          "name": "amountOfTokens",
          "type": "uint256"
        },
        {
          "indexed": false,
          "internalType": "uint256[]",
          "name": "tokenIds",
          "type": "uint256[]"
        }
      ],
      "name": "InfoBatchMint",
      "type": "event"
    },
    {
      "anonymous": false,
      "inputs": [
        {
          "indexed": true,
          "internalType": "address",
          "name": "previousOwner",
          "type": "address"
        },
        {
          "indexed": true,
          "internalType": "address",
          "name": "newOwner",
          "type": "address"
        }
      ],
      "name": "OwnershipTransferred",
      "type": "event"
    },
    {
      "anonymous": false,
      "inputs": [
        {
          "indexed": true,
          "internalType": "address",
          "name": "operator",
          "type": "address"
        },
        {
          "indexed": true,
          "internalType": "address",
          "name": "from",
          "type": "address"
        },
        {
          "indexed": true,
          "internalType": "address",
          "name": "to",
          "type": "address"
        },
        {
          "indexed": false,
          "internalType": "uint256[]",
          "name": "ids",
          "type": "uint256[]"
        },
        {
          "indexed": false,
          "internalType": "uint256[]",
          "name": "values",
          "type": "uint256[]"
        }
      ],
      "name": "TransferBatch",
      "type": "event"
    },
    {
      "anonymous": false,
      "inputs": [
        {
          "indexed": true,
          "internalType": "address",
          "name": "operator",
          "type": "address"
        },
        {
          "indexed": true,
          "internalType": "address",
          "name": "from",
          "type": "address"
        },
        {
          "indexed": true,
          "internalType": "address",
          "name": "to",
          "type": "address"
        },
        {
          "indexed": false,
          "internalType": "uint256",
          "name": "id",
          "type": "uint256"
        },
        {
          "indexed": false,
          "internalType": "uint256",
          "name": "value",
          "type": "uint256"
        }
      ],
      "name": "TransferSingle",
      "type": "event"
    },
    {
      "anonymous": false,
      "inputs": [
        {
          "indexed": false,
          "internalType": "string",
          "name": "value",
          "type": "string"
        },
        {
          "indexed": true,
          "internalType": "uint256",
          "name": "id",
          "type": "uint256"
        }
      ],
      "name": "URI",
      "type": "event"
    },
    {
      "inputs": [
        {
          "internalType": "address",
          "name": "account",
          "type": "address"
        },
        {
          "internalType": "uint256",
          "name": "id",
          "type": "uint256"
        }
      ],
      "name": "balanceOf",
      "outputs": [
        {
          "internalType": "uint256",
          "name": "",
          "type": "uint256"
        }
      ],
      "stateMutability": "view",
      "type": "function"
    },
    {
      "inputs": [
        {
          "internalType": "address[]",
          "name": "accounts",
          "type": "address[]"
        },
        {
          "internalType": "uint256[]",
          "name": "ids",
          "type": "uint256[]"
        }
      ],
      "name": "balanceOfBatch",
      "outputs": [
        {
          "internalType": "uint256[]",
          "name": "",
          "type": "uint256[]"
        }
      ],
      "stateMutability": "view",
      "type": "function"
    },
    {
      "inputs": [
        {
          "internalType": "address",
          "name": "_to",
          "type": "address"
        },
        {
          "internalType": "uint256",
          "name": "_lotteryId",
          "type": "uint256"
        },
        {
          "internalType": "uint8",
          "name": "_numberOfTickets",
          "type": "uint8"
        },
        {
          "internalType": "uint16",
          "name": "_maxValidRange",
          "type": "uint16"
        },
        {
          "internalType": "uint16[]",
          "name": "_numbers",
          "type": "uint16[]"
        }
      ],
      "name": "batchMint",
      "outputs": [
        {
          "internalType": "uint256[]",
          "name": "",
          "type": "uint256[]"
        }
      ],
      "stateMutability": "nonpayable",
      "type": "function"
    },
    {
      "inputs": [
        {
          "internalType": "uint256",
          "name": "_ticketID",
          "type": "uint256"
        },
        {
          "internalType": "uint256",
          "name": "_lotteryId",
          "type": "uint256"
        }
      ],
      "name": "claimTicket",
      "outputs": [
        {
          "internalType": "bool",
          "name": "",
          "type": "bool"
        }
      ],
      "stateMutability": "nonpayable",
      "type": "function"
    },
    {
      "inputs": [
        {
          "internalType": "uint256",
          "name": "_lotteryId",
          "type": "uint256"
        },
        {
          "internalType": "uint16",
          "name": "_maxValidRange",
          "type": "uint16"
        },
        {
          "internalType": "uint16[]",
          "name": "_winningNumbers",
          "type": "uint16[]"
        }
      ],
      "name": "countMatch",
      "outputs": [
        {
          "internalType": "uint256[]",
          "name": "results",
          "type": "uint256[]"
        }
      ],
      "stateMutability": "view",
      "type": "function"
    },
    {
      "inputs": [
        {
          "internalType": "uint16",
          "name": "_maxValidRange",
          "type": "uint16"
        },
        {
          "internalType": "uint16[]",
          "name": "numbers",
          "type": "uint16[]"
        }
      ],
      "name": "generateNumberIndexKey",
      "outputs": [
        {
          "internalType": "uint256[2]",
          "name": "result",
          "type": "uint256[2]"
        }
      ],
      "stateMutability": "pure",
      "type": "function"
    },
    {
      "inputs": [
        {
          "internalType": "uint256[]",
          "name": "ticketIds",
          "type": "uint256[]"
        }
      ],
      "name": "getListTicketNumbers",
      "outputs": [
        {
          "internalType": "uint256[]",
          "name": "ticketNumbers",
          "type": "uint256[]"
        },
        {
          "internalType": "uint256",
          "name": "sizeOfLottery",
          "type": "uint256"
        }
      ],
      "stateMutability": "view",
      "type": "function"
    },
    {
      "inputs": [
        {
          "internalType": "uint256",
          "name": "_lotteryId",
          "type": "uint256"
        }
      ],
      "name": "getNumberOfTickets",
      "outputs": [
        {
          "internalType": "uint256",
          "name": "",
          "type": "uint256"
        }
      ],
      "stateMutability": "view",
      "type": "function"
    },
    {
      "inputs": [
        {
          "internalType": "uint256",
          "name": "_ticketID",
          "type": "uint256"
        }
      ],
      "name": "getOwnerOfTicket",
      "outputs": [
        {
          "internalType": "address",
          "name": "",
          "type": "address"
        }
      ],
      "stateMutability": "view",
      "type": "function"
    },
    {
      "inputs": [
        {
          "internalType": "uint256",
          "name": "_ticketID",
          "type": "uint256"
        }
      ],
      "name": "getTicketClaimStatus",
      "outputs": [
        {
          "internalType": "bool",
          "name": "",
          "type": "bool"
        }
      ],
      "stateMutability": "view",
      "type": "function"
    },
    {
      "inputs": [
        {
          "internalType": "uint256[]",
          "name": "ticketIds",
          "type": "uint256[]"
        }
      ],
      "name": "getTicketClaimStatuses",
      "outputs": [
        {
          "internalType": "bool[]",
          "name": "ticketStatuses",
          "type": "bool[]"
        }
      ],
      "stateMutability": "view",
      "type": "function"
    },
    {
      "inputs": [
        {
          "internalType": "uint256",
          "name": "_ticketID",
          "type": "uint256"
        }
      ],
      "name": "getTicketNumbers",
      "outputs": [
        {
          "internalType": "uint16[]",
          "name": "",
          "type": "uint16[]"
        }
      ],
      "stateMutability": "view",
      "type": "function"
    },
    {
      "inputs": [],
      "name": "getTotalSupply",
      "outputs": [
        {
          "internalType": "uint256",
          "name": "",
          "type": "uint256"
        }
      ],
      "stateMutability": "view",
      "type": "function"
    },
    {
      "inputs": [
        {
          "internalType": "uint256",
          "name": "_lotteryId",
          "type": "uint256"
        },
        {
          "internalType": "address",
          "name": "_user",
          "type": "address"
        }
      ],
      "name": "getUserTickets",
      "outputs": [
        {
          "internalType": "uint256[]",
          "name": "",
          "type": "uint256[]"
        }
      ],
      "stateMutability": "view",
      "type": "function"
    },
    {
      "inputs": [
        {
          "internalType": "address",
          "name": "_user",
          "type": "address"
        },
        {
          "internalType": "uint256",
          "name": "_lotteryId",
          "type": "uint256"
        },
        {
          "internalType": "uint256",
          "name": "cursor",
          "type": "uint256"
        },
        {
          "internalType": "uint256",
          "name": "size",
          "type": "uint256"
        }
      ],
      "name": "getUserTicketsPagination",
      "outputs": [
        {
          "internalType": "uint256[]",
          "name": "",
          "type": "uint256[]"
        },
        {
          "internalType": "uint256",
          "name": "",
          "type": "uint256"
        }
      ],
      "stateMutability": "view",
      "type": "function"
    },
    {
      "inputs": [
        {
          "internalType": "address",
          "name": "account",
          "type": "address"
        },
        {
          "internalType": "address",
          "name": "operator",
          "type": "address"
        }
      ],
      "name": "isApprovedForAll",
      "outputs": [
        {
          "internalType": "bool",
          "name": "",
          "type": "bool"
        }
      ],
      "stateMutability": "view",
      "type": "function"
    },
    {
      "inputs": [],
      "name": "owner",
      "outputs": [
        {
          "internalType": "address",
          "name": "",
          "type": "address"
        }
      ],
      "stateMutability": "view",
      "type": "function"
    },
    {
      "inputs": [],
      "name": "renounceOwnership",
      "outputs": [],
      "stateMutability": "nonpayable",
      "type": "function"
    },
    {
      "inputs": [
        {
          "internalType": "address",
          "name": "from",
          "type": "address"
        },
        {
          "internalType": "address",
          "name": "to",
          "type": "address"
        },
        {
          "internalType": "uint256[]",
          "name": "ids",
          "type": "uint256[]"
        },
        {
          "internalType": "uint256[]",
          "name": "amounts",
          "type": "uint256[]"
        },
        {
          "internalType": "bytes",
          "name": "data",
          "type": "bytes"
        }
      ],
      "name": "safeBatchTransferFrom",
      "outputs": [],
      "stateMutability": "nonpayable",
      "type": "function"
    },
    {
      "inputs": [
        {
          "internalType": "address",
          "name": "from",
          "type": "address"
        },
        {
          "internalType": "address",
          "name": "to",
          "type": "address"
        },
        {
          "internalType": "uint256",
          "name": "id",
          "type": "uint256"
        },
        {
          "internalType": "uint256",
          "name": "amount",
          "type": "uint256"
        },
        {
          "internalType": "bytes",
          "name": "data",
          "type": "bytes"
        }
      ],
      "name": "safeTransferFrom",
      "outputs": [],
      "stateMutability": "nonpayable",
      "type": "function"
    },
    {
      "inputs": [
        {
          "internalType": "address",
          "name": "operator",
          "type": "address"
        },
        {
          "internalType": "bool",
          "name": "approved",
          "type": "bool"
        }
      ],
      "name": "setApprovalForAll",
      "outputs": [],
      "stateMutability": "nonpayable",
      "type": "function"
    },
    {
      "inputs": [
        {
          "internalType": "address",
          "name": "_lottery",
          "type": "address"
        }
      ],
      "name": "setLottery",
      "outputs": [],
      "stateMutability": "nonpayable",
      "type": "function"
    },
    {
      "inputs": [],
      "name": "sizeOfLottery_",
      "outputs": [
        {
          "internalType": "uint8",
          "name": "",
          "type": "uint8"
        }
      ],
      "stateMutability": "view",
      "type": "function"
    },
    {
      "inputs": [
        {
          "internalType": "bytes4",
          "name": "interfaceId",
          "type": "bytes4"
        }
      ],
      "name": "supportsInterface",
      "outputs": [
        {
          "internalType": "bool",
          "name": "",
          "type": "bool"
        }
      ],
      "stateMutability": "view",
      "type": "function"
    },
    {
      "inputs": [
        {
          "internalType": "address",
          "name": "newOwner",
          "type": "address"
        }
      ],
      "name": "transferOwnership",
      "outputs": [],
      "stateMutability": "nonpayable",
      "type": "function"
    },
    {
      "inputs": [
        {
          "internalType": "uint256",
          "name": "",
          "type": "uint256"
        }
      ],
      "name": "uri",
      "outputs": [
        {
          "internalType": "string",
          "name": "",
          "type": "string"
        }
      ],
      "stateMutability": "view",
      "type": "function"
    }
  ],
  "transactionHash": "0x0106230e79ada3c48649ed37b31f672cdf1e79de274c30617ed9f74fa4bfe910",
  "args": [
    "http://api.titandao.finance/lottery/tickets/{id}.json",
    "0xc22D2c4F9Cc14B952DAed5FD7Bc275032505bB75"
  ],
  "solcInputHash": "f5699562eb7d4d6e3a4d234075ee3fed",
  "bytecode": "0x60806040523480156200001157600080fd5b50604051620033c8380380620033c88339810160408190526200003491620001a1565b81620000408162000073565b506200004c336200008c565b600480546001600160a01b0319166001600160a01b039290921691909117905550620002df565b805162000088906002906020840190620000de565b5050565b600380546001600160a01b038381166001600160a01b0319831681179093556040519116919082907f8be0079c531659141344cd1fd0a4f28419497f9722a3daafe3b4186f6b6457e090600090a35050565b828054620000ec906200028c565b90600052602060002090601f0160209004810192826200011057600085556200015b565b82601f106200012b57805160ff19168380011785556200015b565b828001600101855582156200015b579182015b828111156200015b5782518255916020019190600101906200013e565b50620001699291506200016d565b5090565b5b808211156200016957600081556001016200016e565b80516001600160a01b03811681146200019c57600080fd5b919050565b60008060408385031215620001b4578182fd5b82516001600160401b0380821115620001cb578384fd5b818501915085601f830112620001df578384fd5b815181811115620001f457620001f4620002c9565b604051601f8201601f19908116603f011681019083821181831017156200021f576200021f620002c9565b816040528281526020935088848487010111156200023b578687fd5b8691505b828210156200025e57848201840151818301850152908301906200023f565b828211156200026f57868484830101525b95506200028191505085820162000184565b925050509250929050565b600181811c90821680620002a157607f821691505b60208210811415620002c357634e487b7160e01b600052602260045260246000fd5b50919050565b634e487b7160e01b600052604160045260246000fd5b6130d980620002ef6000396000f3fe608060405234801561001057600080fd5b506004361061018d5760003560e01c80639d755367116100de578063e20385a211610097578063ed06a74011610071578063ed06a7401461040a578063f242432a1461041d578063f298083b14610430578063f2fde38b1461044357600080fd5b8063e20385a2146103a8578063e7a7f65c146103bb578063e985e9c5146103ce57600080fd5b80639d75536714610311578063a22cb4651461033a578063b2eddf941461034d578063c4e41b221461036d578063dad97f0914610375578063dfeef3c61461038857600080fd5b80636e59b1ad1161014b5780638da5cb5b116101255780638da5cb5b146102855780639191a7ea146102aa578063929fc016146102d05780639839eafd146102f157600080fd5b80636e59b1ad1461024a578063715018a61461026a57806385930a2e1461027257600080fd5b8062fdd58e1461019257806301ffc9a7146101b8578063075dc415146101db5780630e89341c146101f55780632eb2c2d6146102155780634e1273f41461022a575b600080fd5b6101a56101a0366004612658565b610456565b6040519081526020015b60405180910390f35b6101cb6101c6366004612845565b6104f0565b60405190151581526020016101af565b6101e3600481565b60405160ff90911681526020016101af565b61020861020336600461294d565b610540565b6040516101af9190612c61565b610228610223366004612517565b6105d4565b005b61023d61023836600461273c565b61066b565b6040516101af9190612bfe565b6101a561025836600461294d565b60009081526007602052604090205490565b6102286107cc565b61023d610280366004612987565b610802565b6003546001600160a01b03165b6040516001600160a01b0390911681526020016101af565b6101cb6102b836600461294d565b60009081526006602052604090206002015460ff1690565b6102e36102de366004612681565b610ae1565b6040516101af929190612c3f565b6103046102ff36600461294d565b610c5c565b6040516101af9190612b91565b61029261031f36600461294d565b6000908152600660205260409020546001600160a01b031690565b61022861034836600461261e565b610ce7565b61036061035b366004612897565b610dbe565b6040516101af9190612bcd565b6005546101a5565b61023d6103833660046126b9565b610eaa565b61039b610396366004612806565b611300565b6040516101af9190612b4b565b6102e36103b6366004612806565b6113f2565b61023d6103c9366004612965565b611627565b6101cb6103dc3660046124e5565b6001600160a01b03918216600090815260016020908152604080832093909416825291909152205460ff1690565b6101cb6104183660046129de565b61169c565b61022861042b3660046125bc565b6118f5565b61022861043e3660046124c4565b61197c565b6102286104513660046124c4565b611a10565b60006001600160a01b0383166104c75760405162461bcd60e51b815260206004820152602b60248201527f455243313135353a2062616c616e636520717565727920666f7220746865207a60448201526a65726f206164647265737360a81b60648201526084015b60405180910390fd5b506000818152602081815260408083206001600160a01b03861684529091529020545b92915050565b60006001600160e01b03198216636cdb3d1360e11b148061052157506001600160e01b031982166303a24d0760e21b145b806104ea57506301ffc9a760e01b6001600160e01b03198316146104ea565b60606002805461054f90612f1e565b80601f016020809104026020016040519081016040528092919081815260200182805461057b90612f1e565b80156105c85780601f1061059d576101008083540402835291602001916105c8565b820191906000526020600020905b8154815290600101906020018083116105ab57829003601f168201915b50505050509050919050565b6001600160a01b0385163314806105f057506105f085336103dc565b6106575760405162461bcd60e51b815260206004820152603260248201527f455243313135353a207472616e736665722063616c6c6572206973206e6f74206044820152711bdddb995c881b9bdc88185c1c1c9bdd995960721b60648201526084016104be565b6106648585858585611aab565b5050505050565b606081518351146106d05760405162461bcd60e51b815260206004820152602960248201527f455243313135353a206163636f756e747320616e6420696473206c656e677468604482015268040dad2e6dac2e8c6d60bb1b60648201526084016104be565b600083516001600160401b038111156106f957634e487b7160e01b600052604160045260246000fd5b604051908082528060200260200182016040528015610722578160200160208202803683370190505b50905060005b84518110156107c45761078985828151811061075457634e487b7160e01b600052603260045260246000fd5b602002602001015185838151811061077c57634e487b7160e01b600052603260045260246000fd5b6020026020010151610456565b8282815181106107a957634e487b7160e01b600052603260045260246000fd5b60209081029190910101526107bd81612f85565b9050610728565b509392505050565b6003546001600160a01b031633146107f65760405162461bcd60e51b81526004016104be90612d4b565b6108006000611c63565b565b606061081060046001612e77565b60ff166001600160401b0381111561083857634e487b7160e01b600052604160045260246000fd5b604051908082528060200260200182016040528015610861578160200160208202803683370190505b50905060006108a385858580806020026020016040519081016040528093929190818152602001838360200280828437600092019190915250610dbe92505050565b805160208083015160008a8152600983526040808220838352909352918220548651949550929390929186916108e957634e487b7160e01b600052603260045260246000fd5b6020026020010181815250508360008151811061091657634e487b7160e01b600052603260045260246000fd5b60209081029190910181015160008a815260098352604080822086835290935291909120546109459190612f07565b8460018151811061096657634e487b7160e01b600052603260045260246000fd5b60209081029190910101526000805b6004811015610ad457600060018989848181106109a257634e487b7160e01b600052603260045260246000fd5b90506020020160208101906109b7919061287d565b6109c19190612ee4565b61ffff166001901b856109d49190612f07565b905060015b6109e48b6001612e39565b61ffff16811015610abf57898984818110610a0f57634e487b7160e01b600052603260045260246000fd5b9050602002016020810190610a24919061287d565b61ffff16811415610a3457610aad565b610a3f600182612f07565b6001901b9350818416610aad5760008c815260096020526040812090610a658685612e5f565b81526020019081526020016000205488600281518110610a9557634e487b7160e01b600052603260045260246000fd5b60200260200101818151610aa99190612e5f565b9052505b80610ab781612f85565b9150506109d9565b50508080610acc90612f85565b915050610975565b5050505050949350505050565b6001600160a01b0384166000908152600860209081526040808320868452909152812054606091908390610b16908690612f07565b811115610b4f576001600160a01b0387166000908152600860209081526040808320898452909152902054610b4c908690612f07565b90505b6000816001600160401b03811115610b7757634e487b7160e01b600052604160045260246000fd5b604051908082528060200260200182016040528015610ba0578160200160208202803683370190505b50905060005b82811015610c41576001600160a01b03891660009081526008602090815260408083208b84529091529020610bdb8289612e5f565b81548110610bf957634e487b7160e01b600052603260045260246000fd5b9060005260206000200154828281518110610c2457634e487b7160e01b600052603260045260246000fd5b602090810291909101015280610c3981612f85565b915050610ba6565b5080610c4d8388612e5f565b93509350505094509492505050565b6000818152600660209081526040918290206001018054835181840281018401909452808452606093928301828280156105c857602002820191906000526020600020906000905b82829054906101000a900461ffff1661ffff1681526020019060020190602082600101049283019260010382029150808411610ca4575094979650505050505050565b336001600160a01b0383161415610d525760405162461bcd60e51b815260206004820152602960248201527f455243313135353a2073657474696e6720617070726f76616c20737461747573604482015268103337b91039b2b63360b91b60648201526084016104be565b3360008181526001602090815260408083206001600160a01b03871680855290835292819020805460ff191686151590811790915590519081529192917f17307eab39ab6107e8899845ad3d59bd9653f200f220920489ca2b5937696c31910160405180910390a35050565b610dc661228f565b60008260018451610dd79190612f07565b81518110610df557634e487b7160e01b600052603260045260246000fd5b60200260200101519050600060018451610e0f9190612f07565b90506000805b82811015610e78576001868281518110610e3f57634e487b7160e01b600052603260045260246000fd5b6020026020010151610e519190612ee4565b61ffff166001901b82610e649190612e5f565b915080610e7081612f85565b915050610e15565b50808452610e9161ffff8481169060019089161b612e9c565b610e9b9082612e5f565b60208501525091949350505050565b6004546060906001600160a01b03163314610efd5760405162461bcd60e51b815260206004820152601360248201527213db9b1e48131bdd1d1bc818d85b881b5a5b9d606a1b60448201526064016104be565b60008560ff166001600160401b03811115610f2857634e487b7160e01b600052604160045260246000fd5b604051908082528060200260200182016040528015610f51578160200160208202803683370190505b50905060008660ff166001600160401b03811115610f7f57634e487b7160e01b600052604160045260246000fd5b604051908082528060200260200182016040528015610fa8578160200160208202803683370190505b50905060005b8760ff168160ff16101561123a57600554610fca906001612e5f565b60058190558251839060ff8416908110610ff457634e487b7160e01b600052603260045260246000fd5b6020026020010181815250506001838260ff168151811061102557634e487b7160e01b600052603260045260246000fd5b6020908102919091010152600061103e60046001612e77565b6110489083612ebb565b60ff169050600061105b60046001612e77565b611066846001612e77565b6110709190612ebb565b60ff1690503660006110888361ffff86168b8d612e0d565b9150915060405180608001604052808f6001600160a01b03168152602001838380806020026020016040519081016040528093929190818152602001838360200280828437600081840152601f19601f8201169050808301925050505050505081526020016000151581526020018e81525060066000600554815260200190815260200160002060008201518160000160006101000a8154816001600160a01b0302191690836001600160a01b0316021790555060208201518160010190805190602001906111589291906122ad565b5060408201518160020160006101000a81548160ff02191690831515021790555060608201518160030155905050600860008f6001600160a01b03166001600160a01b0316815260200190815260200160002060008e815260200190815260200160002060055490806001815401808255809150506001900390600052602060002001600090919091909150556112238d8c848480806020026020016040519081016040528093929190818152602001838360200280828437600092019190915250611cb592505050565b50505050808061123290612fa0565b915050610fae565b5061127e8982846000368080601f016020809104026020016040519081016040528093929190818152602001838380828437600092019190915250611d3a92505050565b60008881526007602052604090205461129b9060ff891690612e5f565b6000898152600760205260409081902091909155516001600160a01b038a16907f50062edf461f857e0c73dab48d8c44a183daec17735dded4c6ddd14a42dd47d3906112ec908b908b908690612dc8565b60405180910390a298975050505050505050565b6060816001600160401b0381111561132857634e487b7160e01b600052604160045260246000fd5b604051908082528060200260200182016040528015611351578160200160208202803683370190505b50905060005b828110156113eb576006600085858481811061138357634e487b7160e01b600052603260045260246000fd5b90506020020135815260200190815260200160002060020160009054906101000a900460ff168282815181106113c957634e487b7160e01b600052603260045260246000fd5b91151560209283029190910190910152806113e381612f85565b915050611357565b5092915050565b6060600061140260046001612e77565b60ff1690506114118184612e9c565b6001600160401b0381111561143657634e487b7160e01b600052604160045260246000fd5b60405190808252806020026020018201604052801561145f578160200160208202803683370190505b50915060005b8381101561161f5760006006600087878581811061149357634e487b7160e01b600052603260045260246000fd5b90506020020135815260200190815260200160002060010180548060200260200160405190810160405280929190818152602001828054801561151d57602002820191906000526020600020906000905b82829054906101000a900461ffff1661ffff16815260200190600201906020826001010492830192600103820291508084116114e45790505b505050505090508281511461157f57826001600160401b0381111561155257634e487b7160e01b600052604160045260246000fd5b60405190808252806020026020018201604052801561157b578160200160208202803683370190505b5090505b60005b815181101561160a578181815181106115ab57634e487b7160e01b600052603260045260246000fd5b602002602001015161ffff16858285876115c59190612e9c565b6115cf9190612e5f565b815181106115ed57634e487b7160e01b600052603260045260246000fd5b60209081029190910101528061160281612f85565b915050611582565b5050808061161790612f85565b915050611465565b509250929050565b6001600160a01b038116600090815260086020908152604080832085845282529182902080548351818402810184019094528084526060939283018282801561168f57602002820191906000526020600020905b81548152602001906001019080831161167b575b5050505050905092915050565b6004546000906001600160a01b031633146116ef5760405162461bcd60e51b815260206004820152601360248201527213db9b1e48131bdd1d1bc818d85b881b5a5b9d606a1b60448201526064016104be565b60008381526006602052604090206002015460ff161561174a5760405162461bcd60e51b8152602060048201526016602482015275151a58dad95d08185b1c9958591e4818db185a5b595960521b60448201526064016104be565b60008381526006602052604090206003015482146117aa5760405162461bcd60e51b815260206004820152601b60248201527f5469636b6574206e6f7420666f722074686973206c6f7474657279000000000060448201526064016104be565b6000600460009054906101000a90046001600160a01b03166001600160a01b031663e59bbab56040518163ffffffff1660e01b815260040160206040518083038186803b1580156117fa57600080fd5b505afa15801561180e573d6000803e3d6000fd5b505050506040513d601f19601f8201168201806040525081019061183291906129ff565b63ffffffff16905060005b6000858152600660205260409020600101548110156118cf57600085815260066020526040902060010180548391908390811061188a57634e487b7160e01b600052603260045260246000fd5b60009182526020909120601082040154600f9091166002026101000a900461ffff1611156118bd576000925050506104ea565b806118c781612f85565b91505061183d565b505050600091825250600660205260409020600201805460ff1916600190811790915590565b6001600160a01b038516331480611911575061191185336103dc565b61196f5760405162461bcd60e51b815260206004820152602960248201527f455243313135353a2063616c6c6572206973206e6f74206f776e6572206e6f7260448201526808185c1c1c9bdd995960ba1b60648201526084016104be565b6106648585858585611edb565b6003546001600160a01b031633146119a65760405162461bcd60e51b81526004016104be90612d4b565b6001600160a01b0381166119ee5760405162461bcd60e51b815260206004820152600f60248201526e496e76616c6964206164647265737360881b60448201526064016104be565b600480546001600160a01b0319166001600160a01b0392909216919091179055565b6003546001600160a01b03163314611a3a5760405162461bcd60e51b81526004016104be90612d4b565b6001600160a01b038116611a9f5760405162461bcd60e51b815260206004820152602660248201527f4f776e61626c653a206e6577206f776e657220697320746865207a65726f206160448201526564647265737360d01b60648201526084016104be565b611aa881611c63565b50565b8151835114611acc5760405162461bcd60e51b81526004016104be90612d80565b6001600160a01b038416611af25760405162461bcd60e51b81526004016104be90612cbc565b3360005b8451811015611bf5576000858281518110611b2157634e487b7160e01b600052603260045260246000fd5b602002602001015190506000858381518110611b4d57634e487b7160e01b600052603260045260246000fd5b602090810291909101810151600084815280835260408082206001600160a01b038e168352909352919091205490915081811015611b9d5760405162461bcd60e51b81526004016104be90612d01565b6000838152602081815260408083206001600160a01b038e8116855292528083208585039055908b16825281208054849290611bda908490612e5f565b9250508190555050505080611bee90612f85565b9050611af6565b50846001600160a01b0316866001600160a01b0316826001600160a01b03167f4a39dc06d4c0dbc64b70af90fd698a233a518aa5d07e595d983b8c0526c8f7fb8787604051611c45929190612c11565b60405180910390a4611c5b818787878787612001565b505050505050565b600380546001600160a01b038381166001600160a01b0319831681179093556040519116919082907f8be0079c531659141344cd1fd0a4f28419497f9722a3daafe3b4186f6b6457e090600090a35050565b6000611cc18383610dbe565b905060005b600281101561066457600085815260096020526040812090838360028110611cfe57634e487b7160e01b600052603260045260246000fd5b602002015181526020019081526020016000206000815480929190611d2290612f85565b91905055508080611d3290612f85565b915050611cc6565b6001600160a01b038416611d9a5760405162461bcd60e51b815260206004820152602160248201527f455243313135353a206d696e7420746f20746865207a65726f206164647265736044820152607360f81b60648201526084016104be565b8151835114611dbb5760405162461bcd60e51b81526004016104be90612d80565b3360005b8451811015611e7357838181518110611de857634e487b7160e01b600052603260045260246000fd5b6020026020010151600080878481518110611e1357634e487b7160e01b600052603260045260246000fd5b602002602001015181526020019081526020016000206000886001600160a01b03166001600160a01b031681526020019081526020016000206000828254611e5b9190612e5f565b90915550819050611e6b81612f85565b915050611dbf565b50846001600160a01b031660006001600160a01b0316826001600160a01b03167f4a39dc06d4c0dbc64b70af90fd698a233a518aa5d07e595d983b8c0526c8f7fb8787604051611ec4929190612c11565b60405180910390a461066481600087878787612001565b6001600160a01b038416611f015760405162461bcd60e51b81526004016104be90612cbc565b33611f1a818787611f118861216c565b6106648861216c565b6000848152602081815260408083206001600160a01b038a16845290915290205483811015611f5b5760405162461bcd60e51b81526004016104be90612d01565b6000858152602081815260408083206001600160a01b038b8116855292528083208785039055908816825281208054869290611f98908490612e5f565b909155505060408051868152602081018690526001600160a01b03808916928a821692918616917fc3d58168c5ae7397731d063d5bbf3d657854427343f4c083240f7aacaa2d0f62910160405180910390a4611ff88288888888886121c5565b50505050505050565b6001600160a01b0384163b15611c5b5760405163bc197c8160e01b81526001600160a01b0385169063bc197c81906120459089908990889088908890600401612aa8565b602060405180830381600087803b15801561205f57600080fd5b505af192505050801561208f575060408051601f3d908101601f1916820190925261208c91810190612861565b60015b61213c5761209b612fec565b806308c379a014156120d557506120b0613004565b806120bb57506120d7565b8060405162461bcd60e51b81526004016104be9190612c61565b505b60405162461bcd60e51b815260206004820152603460248201527f455243313135353a207472616e7366657220746f206e6f6e20455243313135356044820152732932b1b2b4bb32b91034b6b83632b6b2b73a32b960611b60648201526084016104be565b6001600160e01b0319811663bc197c8160e01b14611ff85760405162461bcd60e51b81526004016104be90612c74565b604080516001808252818301909252606091600091906020808301908036833701905050905082816000815181106121b457634e487b7160e01b600052603260045260246000fd5b602090810291909101015292915050565b6001600160a01b0384163b15611c5b5760405163f23a6e6160e01b81526001600160a01b0385169063f23a6e61906122099089908990889088908890600401612b06565b602060405180830381600087803b15801561222357600080fd5b505af1925050508015612253575060408051601f3d908101601f1916820190925261225091810190612861565b60015b61225f5761209b612fec565b6001600160e01b0319811663f23a6e6160e01b14611ff85760405162461bcd60e51b81526004016104be90612c74565b60405180604001604052806002906020820280368337509192915050565b82805482825590600052602060002090600f016010900481019282156123465791602002820160005b8382111561231657835183826101000a81548161ffff021916908361ffff16021790555092602001926002016020816001010492830192600103026122d6565b80156123445782816101000a81549061ffff0219169055600201602081600101049283019260010302612316565b505b50612352929150612356565b5090565b5b808211156123525760008155600101612357565b80356001600160a01b038116811461238257600080fd5b919050565b60008083601f840112612398578182fd5b5081356001600160401b038111156123ae578182fd5b6020830191508360208260051b85010111156123c957600080fd5b9250929050565b600082601f8301126123e0578081fd5b813560206123ed82612dea565b6040516123fa8282612f59565b8381528281019150858301600585901b87018401881015612419578586fd5b855b858110156124375781358452928401929084019060010161241b565b5090979650505050505050565b600082601f830112612454578081fd5b81356001600160401b0381111561246d5761246d612fd6565b604051612484601f8301601f191660200182612f59565b818152846020838601011115612498578283fd5b816020850160208301379081016020019190915292915050565b803561ffff8116811461238257600080fd5b6000602082840312156124d5578081fd5b6124de8261236b565b9392505050565b600080604083850312156124f7578081fd5b6125008361236b565b915061250e6020840161236b565b90509250929050565b600080600080600060a0868803121561252e578081fd5b6125378661236b565b94506125456020870161236b565b935060408601356001600160401b0380821115612560578283fd5b61256c89838a016123d0565b94506060880135915080821115612581578283fd5b61258d89838a016123d0565b935060808801359150808211156125a2578283fd5b506125af88828901612444565b9150509295509295909350565b600080600080600060a086880312156125d3578081fd5b6125dc8661236b565b94506125ea6020870161236b565b9350604086013592506060860135915060808601356001600160401b03811115612612578182fd5b6125af88828901612444565b60008060408385031215612630578182fd5b6126398361236b565b91506020830135801515811461264d578182fd5b809150509250929050565b6000806040838503121561266a578182fd5b6126738361236b565b946020939093013593505050565b60008060008060808587031215612696578182fd5b61269f8561236b565b966020860135965060408601359560600135945092505050565b60008060008060008060a087890312156126d1578384fd5b6126da8761236b565b955060208701359450604087013560ff811681146126f6578485fd5b9350612704606088016124b2565b925060808701356001600160401b0381111561271e578182fd5b61272a89828a01612387565b979a9699509497509295939492505050565b6000806040838503121561274e578182fd5b82356001600160401b0380821115612764578384fd5b818501915085601f830112612777578384fd5b8135602061278482612dea565b6040516127918282612f59565b8381528281019150858301600585901b870184018b10156127b0578889fd5b8896505b848710156127d9576127c58161236b565b8352600196909601959183019183016127b4565b50965050860135925050808211156127ef578283fd5b506127fc858286016123d0565b9150509250929050565b60008060208385031215612818578182fd5b82356001600160401b0381111561282d578283fd5b61283985828601612387565b90969095509350505050565b600060208284031215612856578081fd5b81356124de8161308d565b600060208284031215612872578081fd5b81516124de8161308d565b60006020828403121561288e578081fd5b6124de826124b2565b600080604083850312156128a9578182fd5b6128b2836124b2565b91506020808401356001600160401b038111156128cd578283fd5b8401601f810186136128dd578283fd5b80356128e881612dea565b6040516128f58282612f59565b8281528481019150838501600584901b850186018a1015612914578687fd5b8694505b8385101561293d57612929816124b2565b835260019490940193918501918501612918565b5080955050505050509250929050565b60006020828403121561295e578081fd5b5035919050565b60008060408385031215612977578182fd5b8235915061250e6020840161236b565b6000806000806060858703121561299c578182fd5b843593506129ac602086016124b2565b925060408501356001600160401b038111156129c6578283fd5b6129d287828801612387565b95989497509550505050565b600080604083850312156129f0578182fd5b50508035926020909101359150565b600060208284031215612a10578081fd5b815163ffffffff811681146124de578182fd5b6000815180845260208085019450808401835b83811015612a5257815187529582019590820190600101612a36565b509495945050505050565b60008151808452815b81811015612a8257602081850181015186830182015201612a66565b81811115612a935782602083870101525b50601f01601f19169290920160200192915050565b6001600160a01b0386811682528516602082015260a060408201819052600090612ad490830186612a23565b8281036060840152612ae68186612a23565b90508281036080840152612afa8185612a5d565b98975050505050505050565b6001600160a01b03868116825285166020820152604081018490526060810183905260a060808201819052600090612b4090830184612a5d565b979650505050505050565b6020808252825182820181905260009190848201906040850190845b81811015612b85578351151583529284019291840191600101612b67565b50909695505050505050565b6020808252825182820181905260009190848201906040850190845b81811015612b8557835161ffff1683529284019291840191600101612bad565b60408101818360005b6002811015612bf5578151835260209283019290910190600101612bd6565b50505092915050565b6020815260006124de6020830184612a23565b604081526000612c246040830185612a23565b8281036020840152612c368185612a23565b95945050505050565b604081526000612c526040830185612a23565b90508260208301529392505050565b6020815260006124de6020830184612a5d565b60208082526028908201527f455243313135353a204552433131353552656365697665722072656a656374656040820152676420746f6b656e7360c01b606082015260800190565b60208082526025908201527f455243313135353a207472616e7366657220746f20746865207a65726f206164604082015264647265737360d81b606082015260800190565b6020808252602a908201527f455243313135353a20696e73756666696369656e742062616c616e636520666f60408201526939103a3930b739b332b960b11b606082015260800190565b6020808252818101527f4f776e61626c653a2063616c6c6572206973206e6f7420746865206f776e6572604082015260600190565b60208082526028908201527f455243313135353a2069647320616e6420616d6f756e7473206c656e677468206040820152670dad2e6dac2e8c6d60c31b606082015260800190565b83815260ff83166020820152606060408201526000612c366060830184612a23565b60006001600160401b03821115612e0357612e03612fd6565b5060051b60200190565b60008085851115612e1c578182fd5b83861115612e28578182fd5b5050600583901b0193919092039150565b600061ffff808316818516808303821115612e5657612e56612fc0565b01949350505050565b60008219821115612e7257612e72612fc0565b500190565b600060ff821660ff84168060ff03821115612e9457612e94612fc0565b019392505050565b6000816000190483118215151615612eb657612eb6612fc0565b500290565b600060ff821660ff84168160ff0481118215151615612edc57612edc612fc0565b029392505050565b600061ffff83811690831681811015612eff57612eff612fc0565b039392505050565b600082821015612f1957612f19612fc0565b500390565b600181811c90821680612f3257607f821691505b60208210811415612f5357634e487b7160e01b600052602260045260246000fd5b50919050565b601f8201601f191681016001600160401b0381118282101715612f7e57612f7e612fd6565b6040525050565b6000600019821415612f9957612f99612fc0565b5060010190565b600060ff821660ff811415612fb757612fb7612fc0565b60010192915050565b634e487b7160e01b600052601160045260246000fd5b634e487b7160e01b600052604160045260246000fd5b600060033d111561300157600481823e5160e01c5b90565b600060443d10156130125790565b6040516003193d81016004833e81513d6001600160401b03816024840111818411171561304157505050505090565b82850191508151818111156130595750505050505090565b843d87010160208285010111156130735750505050505090565b61308260208286010187612f59565b509095945050505050565b6001600160e01b031981168114611aa857600080fdfea264697066735822122049fb3f3d8ba04dfb152100ae285fcc9db53c631a41f03e8ad89204c674445cfc64736f6c63430008040033",
  "devdoc": {
    "kind": "dev",
    "methods": {
      "balanceOf(address,uint256)": {
        "details": "See {IERC1155-balanceOf}. Requirements: - `account` cannot be the zero address."
      },
      "balanceOfBatch(address[],uint256[])": {
        "details": "See {IERC1155-balanceOfBatch}. Requirements: - `accounts` and `ids` must have the same length."
      },
      "batchMint(address,uint256,uint8,uint16,uint16[])": {
        "params": {
          "_numberOfTickets": "The number of NFT's to mint",
          "_to": "The address being minted to"
        }
      },
      "constructor": {
        "params": {
          "_lotto": "The address of the lotto contract. The lotto contract has          elevated permissions on this contract.",
          "_uri": "A dynamic URI that enables individuals to view information          around their NFT token. To see the information replace the          `\\{id\\}` substring with the actual token type ID. For more info          visit:          https://eips.ethereum.org/EIPS/eip-1155#metadata[defined in the EIP]."
        }
      },
      "getOwnerOfTicket(uint256)": {
        "params": {
          "_ticketID": ": The unique ID of the ticket"
        },
        "returns": {
          "_0": "address: Owner of ticket"
        }
      },
      "getTicketNumbers(uint256)": {
        "params": {
          "_ticketID": ": The unique ID of the ticket"
        },
        "returns": {
          "_0": "uint32[]: The chosen numbers for that ticket"
        }
      },
      "isApprovedForAll(address,address)": {
        "details": "See {IERC1155-isApprovedForAll}."
      },
      "owner()": {
        "details": "Returns the address of the current owner."
      },
      "renounceOwnership()": {
        "details": "Leaves the contract without owner. It will not be possible to call `onlyOwner` functions anymore. Can only be called by the current owner. NOTE: Renouncing ownership will leave the contract without an owner, thereby removing any functionality that is only available to the owner."
      },
      "safeBatchTransferFrom(address,address,uint256[],uint256[],bytes)": {
        "details": "See {IERC1155-safeBatchTransferFrom}."
      },
      "safeTransferFrom(address,address,uint256,uint256,bytes)": {
        "details": "See {IERC1155-safeTransferFrom}."
      },
      "setApprovalForAll(address,bool)": {
        "details": "See {IERC1155-setApprovalForAll}."
      },
      "supportsInterface(bytes4)": {
        "details": "See {IERC165-supportsInterface}."
      },
      "transferOwnership(address)": {
        "details": "Transfers ownership of the contract to a new account (`newOwner`). Can only be called by the current owner."
      },
      "uri(uint256)": {
        "details": "See {IERC1155MetadataURI-uri}. This implementation returns the same URI for *all* token types. It relies on the token type ID substitution mechanism https://eips.ethereum.org/EIPS/eip-1155#metadata[defined in the EIP]. Clients calling this function must replace the `\\{id\\}` substring with the actual token type ID."
      }
    },
    "version": 1
  },
  "userdoc": {
    "kind": "user",
    "methods": {
      "batchMint(address,uint256,uint8,uint16,uint16[])": {
        "notice": "Only the lotto contract is able to mint tokens. // uint8[][] calldata _lottoNumbers"
      },
      "generateNumberIndexKey(uint16,uint16[])": {
        "notice": "calculate the index for matching eg: 0x0102030402 <- mean ticket 01 02 03 04 missing 2 numbers eg: 0x0102030400 <- mean ticket 01 02 03 04 missing 0 numbers the last element is Jackpot index. eg: ticket 01 02 03 04 21 has index: 0x010203040021"
      }
    },
    "version": 1
  },
  "storageLayout": {
    "storage": [
      {
        "astId": 441,
        "contract": "contracts/Ticket.sol:Ticket",
        "label": "_balances",
        "offset": 0,
        "slot": "0",
        "type": "t_mapping(t_uint256,t_mapping(t_address,t_uint256))"
      },
      {
        "astId": 447,
        "contract": "contracts/Ticket.sol:Ticket",
        "label": "_operatorApprovals",
        "offset": 0,
        "slot": "1",
        "type": "t_mapping(t_address,t_mapping(t_address,t_bool))"
      },
      {
        "astId": 449,
        "contract": "contracts/Ticket.sol:Ticket",
        "label": "_uri",
        "offset": 0,
        "slot": "2",
        "type": "t_string_storage"
      },
      {
        "astId": 319,
        "contract": "contracts/Ticket.sol:Ticket",
        "label": "_owner",
        "offset": 0,
        "slot": "3",
        "type": "t_address"
      },
      {
        "astId": 4967,
        "contract": "contracts/Ticket.sol:Ticket",
        "label": "lotteryContract_",
        "offset": 0,
        "slot": "4",
        "type": "t_address"
      },
      {
        "astId": 4969,
        "contract": "contracts/Ticket.sol:Ticket",
        "label": "totalSupply_",
        "offset": 0,
        "slot": "5",
        "type": "t_uint256"
      },
      {
        "astId": 4984,
        "contract": "contracts/Ticket.sol:Ticket",
        "label": "ticketInfo_",
        "offset": 0,
        "slot": "6",
        "type": "t_mapping(t_uint256,t_struct(TicketInfo)4979_storage)"
      },
      {
        "astId": 4988,
        "contract": "contracts/Ticket.sol:Ticket",
        "label": "ticketsCount_",
        "offset": 0,
        "slot": "7",
        "type": "t_mapping(t_uint256,t_uint256)"
      },
      {
        "astId": 4995,
        "contract": "contracts/Ticket.sol:Ticket",
        "label": "userTickets_",
        "offset": 0,
        "slot": "8",
        "type": "t_mapping(t_address,t_mapping(t_uint256,t_array(t_uint256)dyn_storage))"
      },
      {
        "astId": 5004,
        "contract": "contracts/Ticket.sol:Ticket",
        "label": "ticketHashes_",
        "offset": 0,
        "slot": "9",
        "type": "t_mapping(t_uint256,t_mapping(t_uint256,t_uint256))"
      }
    ],
    "types": {
      "t_address": {
        "encoding": "inplace",
        "label": "address",
        "numberOfBytes": "20"
      },
      "t_array(t_uint16)dyn_storage": {
        "base": "t_uint16",
        "encoding": "dynamic_array",
        "label": "uint16[]",
        "numberOfBytes": "32"
      },
      "t_array(t_uint256)dyn_storage": {
        "base": "t_uint256",
        "encoding": "dynamic_array",
        "label": "uint256[]",
        "numberOfBytes": "32"
      },
      "t_bool": {
        "encoding": "inplace",
        "label": "bool",
        "numberOfBytes": "1"
      },
      "t_mapping(t_address,t_bool)": {
        "encoding": "mapping",
        "key": "t_address",
        "label": "mapping(address => bool)",
        "numberOfBytes": "32",
        "value": "t_bool"
      },
      "t_mapping(t_address,t_mapping(t_address,t_bool))": {
        "encoding": "mapping",
        "key": "t_address",
        "label": "mapping(address => mapping(address => bool))",
        "numberOfBytes": "32",
        "value": "t_mapping(t_address,t_bool)"
      },
      "t_mapping(t_address,t_mapping(t_uint256,t_array(t_uint256)dyn_storage))": {
        "encoding": "mapping",
        "key": "t_address",
        "label": "mapping(address => mapping(uint256 => uint256[]))",
        "numberOfBytes": "32",
        "value": "t_mapping(t_uint256,t_array(t_uint256)dyn_storage)"
      },
      "t_mapping(t_address,t_uint256)": {
        "encoding": "mapping",
        "key": "t_address",
        "label": "mapping(address => uint256)",
        "numberOfBytes": "32",
        "value": "t_uint256"
      },
      "t_mapping(t_uint256,t_array(t_uint256)dyn_storage)": {
        "encoding": "mapping",
        "key": "t_uint256",
        "label": "mapping(uint256 => uint256[])",
        "numberOfBytes": "32",
        "value": "t_array(t_uint256)dyn_storage"
      },
      "t_mapping(t_uint256,t_mapping(t_address,t_uint256))": {
        "encoding": "mapping",
        "key": "t_uint256",
        "label": "mapping(uint256 => mapping(address => uint256))",
        "numberOfBytes": "32",
        "value": "t_mapping(t_address,t_uint256)"
      },
      "t_mapping(t_uint256,t_mapping(t_uint256,t_uint256))": {
        "encoding": "mapping",
        "key": "t_uint256",
        "label": "mapping(uint256 => mapping(uint256 => uint256))",
        "numberOfBytes": "32",
        "value": "t_mapping(t_uint256,t_uint256)"
      },
      "t_mapping(t_uint256,t_struct(TicketInfo)4979_storage)": {
        "encoding": "mapping",
        "key": "t_uint256",
        "label": "mapping(uint256 => struct Ticket.TicketInfo)",
        "numberOfBytes": "32",
        "value": "t_struct(TicketInfo)4979_storage"
      },
      "t_mapping(t_uint256,t_uint256)": {
        "encoding": "mapping",
        "key": "t_uint256",
        "label": "mapping(uint256 => uint256)",
        "numberOfBytes": "32",
        "value": "t_uint256"
      },
      "t_string_storage": {
        "encoding": "bytes",
        "label": "string",
        "numberOfBytes": "32"
      },
      "t_struct(TicketInfo)4979_storage": {
        "encoding": "inplace",
        "label": "struct Ticket.TicketInfo",
        "members": [
          {
            "astId": 4971,
            "contract": "contracts/Ticket.sol:Ticket",
            "label": "owner",
            "offset": 0,
            "slot": "0",
            "type": "t_address"
          },
          {
            "astId": 4974,
            "contract": "contracts/Ticket.sol:Ticket",
            "label": "numbers",
            "offset": 0,
            "slot": "1",
            "type": "t_array(t_uint16)dyn_storage"
          },
          {
            "astId": 4976,
            "contract": "contracts/Ticket.sol:Ticket",
            "label": "claimed",
            "offset": 0,
            "slot": "2",
            "type": "t_bool"
          },
          {
            "astId": 4978,
            "contract": "contracts/Ticket.sol:Ticket",
            "label": "lotteryId",
            "offset": 0,
            "slot": "3",
            "type": "t_uint256"
          }
        ],
        "numberOfBytes": "128"
      },
      "t_uint16": {
        "encoding": "inplace",
        "label": "uint16",
        "numberOfBytes": "2"
      },
      "t_uint256": {
        "encoding": "inplace",
        "label": "uint256",
        "numberOfBytes": "32"
      }
    }
  }
}